{
  "_format": "hh-sol-artifact-1",
  "contractName": "MultiSig",
  "sourceName": "contracts/MultiSig.sol",
  "abi": [
    {
      "inputs": [],
      "stateMutability": "nonpayable",
      "type": "constructor"
    },
    {
      "inputs": [],
      "name": "becomeCandidate",
      "outputs": [],
      "stateMutability": "nonpayable",
      "type": "function"
    },
    {
      "inputs": [
        {
          "internalType": "address",
          "name": "",
          "type": "address"
        }
      ],
      "name": "candidatesForOwner",
      "outputs": [
        {
          "internalType": "bool",
          "name": "",
          "type": "bool"
        }
      ],
      "stateMutability": "view",
      "type": "function"
    },
    {
      "inputs": [
        {
          "internalType": "address",
          "name": "",
          "type": "address"
        }
      ],
      "name": "candidatesVotesCount",
      "outputs": [
        {
          "internalType": "uint256",
          "name": "_for",
          "type": "uint256"
        },
        {
          "internalType": "uint256",
          "name": "_against",
          "type": "uint256"
        }
      ],
      "stateMutability": "view",
      "type": "function"
    },
    {
      "inputs": [
        {
          "internalType": "address",
          "name": "_new",
          "type": "address"
        }
      ],
      "name": "changeTokenAddress",
      "outputs": [],
      "stateMutability": "nonpayable",
      "type": "function"
    },
    {
      "inputs": [],
      "name": "checkBalance",
      "outputs": [
        {
          "internalType": "uint256",
          "name": "",
          "type": "uint256"
        }
      ],
      "stateMutability": "view",
      "type": "function"
    },
    {
      "inputs": [
        {
          "internalType": "address",
          "name": "_to",
          "type": "address"
        },
        {
          "internalType": "uint256",
          "name": "_amount",
          "type": "uint256"
        }
      ],
      "name": "offerTransaction",
      "outputs": [],
      "stateMutability": "nonpayable",
      "type": "function"
    },
    {
      "inputs": [
        {
          "internalType": "address",
          "name": "",
          "type": "address"
        }
      ],
      "name": "owners",
      "outputs": [
        {
          "internalType": "bool",
          "name": "",
          "type": "bool"
        }
      ],
      "stateMutability": "view",
      "type": "function"
    },
    {
      "inputs": [],
      "name": "ownersCount",
      "outputs": [
        {
          "internalType": "uint256",
          "name": "",
          "type": "uint256"
        }
      ],
      "stateMutability": "view",
      "type": "function"
    },
    {
      "inputs": [
        {
          "internalType": "address",
          "name": "",
          "type": "address"
        },
        {
          "internalType": "address",
          "name": "",
          "type": "address"
        }
      ],
      "name": "ownersVotesForCandidate",
      "outputs": [
        {
          "internalType": "bool",
          "name": "",
          "type": "bool"
        }
      ],
      "stateMutability": "view",
      "type": "function"
    },
    {
      "inputs": [
        {
          "internalType": "address",
          "name": "",
          "type": "address"
        },
        {
          "internalType": "uint256",
          "name": "",
          "type": "uint256"
        }
      ],
      "name": "ownersVotesForTransaction",
      "outputs": [
        {
          "internalType": "bool",
          "name": "",
          "type": "bool"
        }
      ],
      "stateMutability": "view",
      "type": "function"
    },
    {
      "inputs": [],
      "name": "tokenAddress",
      "outputs": [
        {
          "internalType": "address",
          "name": "",
          "type": "address"
        }
      ],
      "stateMutability": "view",
      "type": "function"
    },
    {
      "inputs": [],
      "name": "transactionIndex",
      "outputs": [
        {
          "internalType": "uint256",
          "name": "",
          "type": "uint256"
        }
      ],
      "stateMutability": "view",
      "type": "function"
    },
    {
      "inputs": [
        {
          "internalType": "uint256",
          "name": "",
          "type": "uint256"
        }
      ],
      "name": "transactions",
      "outputs": [
        {
          "internalType": "uint256",
          "name": "_amount",
          "type": "uint256"
        },
        {
          "internalType": "address",
          "name": "_to",
          "type": "address"
        },
        {
          "internalType": "string",
          "name": "_status",
          "type": "string"
        }
      ],
      "stateMutability": "view",
      "type": "function"
    },
    {
      "inputs": [
        {
          "internalType": "uint256",
          "name": "",
          "type": "uint256"
        }
      ],
      "name": "transactionsVotesCount",
      "outputs": [
        {
          "internalType": "uint256",
          "name": "_for",
          "type": "uint256"
        },
        {
          "internalType": "uint256",
          "name": "_against",
          "type": "uint256"
        }
      ],
      "stateMutability": "view",
      "type": "function"
    },
    {
      "inputs": [
        {
          "internalType": "address",
          "name": "_candidate",
          "type": "address"
        },
        {
          "internalType": "bool",
          "name": "_vote",
          "type": "bool"
        }
      ],
      "name": "voteForTheCandidate",
      "outputs": [],
      "stateMutability": "nonpayable",
      "type": "function"
    },
    {
      "inputs": [
        {
          "internalType": "uint256",
          "name": "_transactionID",
          "type": "uint256"
        },
        {
          "internalType": "bool",
          "name": "_vote",
          "type": "bool"
        }
      ],
      "name": "voteForTheTransaction",
      "outputs": [],
      "stateMutability": "nonpayable",
      "type": "function"
    }
  ],
  "bytecode": "0x60806040523480156200001157600080fd5b506001600260003373ffffffffffffffffffffffffffffffffffffffff1673ffffffffffffffffffffffffffffffffffffffff16815260200190815260200160002060006101000a81548160ff021916908315150217905550600360008154809291906200007f9062000178565b919050555073f6ebd1de707f72e40482072248a553070870f3136000806101000a81548173ffffffffffffffffffffffffffffffffffffffff021916908373ffffffffffffffffffffffffffffffffffffffff16021790555060008054906101000a900473ffffffffffffffffffffffffffffffffffffffff16600160006101000a81548173ffffffffffffffffffffffffffffffffffffffff021916908373ffffffffffffffffffffffffffffffffffffffff160217905550620001c5565b7f4e487b7100000000000000000000000000000000000000000000000000000000600052601160045260246000fd5b6000819050919050565b600062000185826200016e565b91507fffffffffffffffffffffffffffffffffffffffffffffffffffffffffffffffff8203620001ba57620001b96200013f565b5b600182019050919050565b6120d780620001d56000396000f3fe608060405234801561001057600080fd5b50600436106101005760003560e01c80637649e82711610097578063b948854611610066578063b9488546146102d7578063c3331373146102f5578063c71daccb14610311578063c9cda91f1461032f57610100565b80637649e827146102385780639ace38c2146102695780639d76ea581461029b578063b8220f6a146102b957610100565b80632f41e443116100d35780632f41e4431461019d5780633ee50c9f146101a757806346f73a45146101d8578063618e8e931461020857610100565b8063022914a71461010557806305c88840146101355780631f9c283f146101515780632d28d5f614610181575b600080fd5b61011f600480360381019061011a919061149b565b61034b565b60405161012c91906114e3565b60405180910390f35b61014f600480360381019061014a919061152a565b61036b565b005b61016b6004803603810190610166919061149b565b6107f6565b60405161017891906114e3565b60405180910390f35b61019b600480360381019061019691906115a0565b610816565b005b6101a5610d6a565b005b6101c160048036038101906101bc91906115e0565b610ede565b6040516101cf92919061161c565b60405180910390f35b6101f260048036038101906101ed9190611645565b610f02565b6040516101ff91906114e3565b60405180910390f35b610222600480360381019061021d9190611685565b610f31565b60405161022f91906114e3565b60405180910390f35b610252600480360381019061024d919061149b565b610f60565b60405161026092919061161c565b60405180910390f35b610283600480360381019061027e91906115e0565b610f84565b60405161029293929190611764565b60405180910390f35b6102a3611056565b6040516102b091906117a2565b60405180910390f35b6102c161107a565b6040516102ce91906117bd565b60405180910390f35b6102df611080565b6040516102ec91906117bd565b60405180910390f35b61030f600480360381019061030a9190611685565b611086565b005b6103196112f1565b60405161032691906117bd565b60405180910390f35b6103496004803603810190610344919061149b565b611394565b005b60026020528060005260406000206000915054906101000a900460ff1681565b600260003373ffffffffffffffffffffffffffffffffffffffff1673ffffffffffffffffffffffffffffffffffffffff16815260200190815260200160002060009054906101000a900460ff166103f7576040517f08c379a00000000000000000000000000000000000000000000000000000000081526004016103ee90611824565b60405180910390fd5b600660003373ffffffffffffffffffffffffffffffffffffffff1673ffffffffffffffffffffffffffffffffffffffff16815260200190815260200160002060008373ffffffffffffffffffffffffffffffffffffffff1673ffffffffffffffffffffffffffffffffffffffff16815260200190815260200160002060009054906101000a900460ff16156104c1576040517f08c379a00000000000000000000000000000000000000000000000000000000081526004016104b8906118b6565b60405180910390fd5b801561069757600460008373ffffffffffffffffffffffffffffffffffffffff1673ffffffffffffffffffffffffffffffffffffffff168152602001908152602001600020600001600081548092919061051a90611905565b9190505550600260035461052e919061197c565b600460008473ffffffffffffffffffffffffffffffffffffffff1673ffffffffffffffffffffffffffffffffffffffff168152602001908152602001600020600001541115610692576001600260008473ffffffffffffffffffffffffffffffffffffffff1673ffffffffffffffffffffffffffffffffffffffff16815260200190815260200160002060006101000a81548160ff0219169083151502179055506000600560008473ffffffffffffffffffffffffffffffffffffffff1673ffffffffffffffffffffffffffffffffffffffff16815260200190815260200160002060006101000a81548160ff021916908315150217905550600460008373ffffffffffffffffffffffffffffffffffffffff1673ffffffffffffffffffffffffffffffffffffffff168152602001908152602001600020600080820160009055600182016000905550506003600081548092919061068c90611905565b91905055505b6107f2565b600460008373ffffffffffffffffffffffffffffffffffffffff1673ffffffffffffffffffffffffffffffffffffffff16815260200190815260200160002060010160008154809291906106ea90611905565b919050555060026003546106fe919061197c565b600460008473ffffffffffffffffffffffffffffffffffffffff1673ffffffffffffffffffffffffffffffffffffffff16815260200190815260200160002060010154106107f1576000600560008473ffffffffffffffffffffffffffffffffffffffff1673ffffffffffffffffffffffffffffffffffffffff16815260200190815260200160002060006101000a81548160ff021916908315150217905550600460008373ffffffffffffffffffffffffffffffffffffffff1673ffffffffffffffffffffffffffffffffffffffff168152602001908152602001600020600080820160009055600182016000905550505b5b5050565b60056020528060005260406000206000915054906101000a900460ff1681565b600260003373ffffffffffffffffffffffffffffffffffffffff1673ffffffffffffffffffffffffffffffffffffffff16815260200190815260200160002060009054906101000a900460ff166108a2576040517f08c379a000000000000000000000000000000000000000000000000000000000815260040161089990611824565b60405180910390fd5b600a60003373ffffffffffffffffffffffffffffffffffffffff1673ffffffffffffffffffffffffffffffffffffffff168152602001908152602001600020600083815260200190815260200160002060009054906101000a900460ff1615610940576040517f08c379a000000000000000000000000000000000000000000000000000000000815260040161093790611a1f565b60405180910390fd5b600854821115610985576040517f08c379a000000000000000000000000000000000000000000000000000000000815260040161097c90611ab1565b60405180910390fd5b60405160200161099490611b28565b60405160208183030381529060405280519060200120600760008481526020019081526020016000206002016040516020016109d09190611c35565b6040516020818303038152906040528051906020012014610a26576040517f08c379a0000000000000000000000000000000000000000000000000000000008152600401610a1d90611c98565b60405180910390fd5b8015610cb457600960008381526020019081526020016000206000016000815480929190610a5390611905565b91905055506002600354610a67919061197c565b60096000848152602001908152602001600020600001541115610caf576007600083815260200190815260200160002060000154600160009054906101000a900473ffffffffffffffffffffffffffffffffffffffff1673ffffffffffffffffffffffffffffffffffffffff166370a08231306040518263ffffffff1660e01b8152600401610af691906117a2565b602060405180830381865afa158015610b13573d6000803e3d6000fd5b505050506040513d601f19601f82011682018060405250810190610b379190611ccd565b1015610b78576040517f08c379a0000000000000000000000000000000000000000000000000000000008152600401610b6f90611d46565b60405180910390fd5b600160009054906101000a900473ffffffffffffffffffffffffffffffffffffffff1673ffffffffffffffffffffffffffffffffffffffff166323b872dd306007600086815260200190815260200160002060010160009054906101000a900473ffffffffffffffffffffffffffffffffffffffff1660076000878152602001908152602001600020600001546040518463ffffffff1660e01b8152600401610c2393929190611d66565b600060405180830381600087803b158015610c3d57600080fd5b505af1158015610c51573d6000803e3d6000fd5b505050506040518060400160405280600981526020017f5375626d69747465640000000000000000000000000000000000000000000000815250600760008481526020019081526020016000206002019081610cad9190611f63565b505b610d66565b600960008381526020019081526020016000206001016000815480929190610cdb90611905565b91905055506002600354610cef919061197c565b600960008481526020019081526020016000206001015410610d65576040518060400160405280600681526020017f44656e6965640000000000000000000000000000000000000000000000000000815250600760008481526020019081526020016000206002019081610d639190611f63565b505b5b5050565b600260003373ffffffffffffffffffffffffffffffffffffffff1673ffffffffffffffffffffffffffffffffffffffff16815260200190815260200160002060009054906101000a900460ff1615610df7576040517f08c379a0000000000000000000000000000000000000000000000000000000008152600401610dee90612081565b60405180910390fd5b600560003373ffffffffffffffffffffffffffffffffffffffff1673ffffffffffffffffffffffffffffffffffffffff16815260200190815260200160002060009054906101000a900460ff1615610e84576040517f08c379a0000000000000000000000000000000000000000000000000000000008152600401610e7b90612081565b60405180910390fd5b6001600560003373ffffffffffffffffffffffffffffffffffffffff1673ffffffffffffffffffffffffffffffffffffffff16815260200190815260200160002060006101000a81548160ff021916908315150217905550565b60096020528060005260406000206000915090508060000154908060010154905082565b60066020528160005260406000206020528060005260406000206000915091509054906101000a900460ff1681565b600a6020528160005260406000206020528060005260406000206000915091509054906101000a900460ff1681565b60046020528060005260406000206000915090508060000154908060010154905082565b60076020528060005260406000206000915090508060000154908060010160009054906101000a900473ffffffffffffffffffffffffffffffffffffffff1690806002018054610fd390611b6c565b80601f0160208091040260200160405190810160405280929190818152602001828054610fff90611b6c565b801561104c5780601f106110215761010080835404028352916020019161104c565b820191906000526020600020905b81548152906001019060200180831161102f57829003601f168201915b5050505050905083565b60008054906101000a900473ffffffffffffffffffffffffffffffffffffffff1681565b60085481565b60035481565b600260003373ffffffffffffffffffffffffffffffffffffffff1673ffffffffffffffffffffffffffffffffffffffff16815260200190815260200160002060009054906101000a900460ff16611112576040517f08c379a000000000000000000000000000000000000000000000000000000000815260040161110990611824565b60405180910390fd5b80600160009054906101000a900473ffffffffffffffffffffffffffffffffffffffff1673ffffffffffffffffffffffffffffffffffffffff166370a08231306040518263ffffffff1660e01b815260040161116e91906117a2565b602060405180830381865afa15801561118b573d6000803e3d6000fd5b505050506040513d601f19601f820116820180604052508101906111af9190611ccd565b10156111f0576040517f08c379a00000000000000000000000000000000000000000000000000000000081526004016111e790611d46565b60405180910390fd5b6008600081548092919061120390611905565b919050555060405180606001604052808281526020018373ffffffffffffffffffffffffffffffffffffffff1681526020016040518060400160405280600981526020017f4f6e20766f74696e6700000000000000000000000000000000000000000000008152508152506007600060085481526020019081526020016000206000820151816000015560208201518160010160006101000a81548173ffffffffffffffffffffffffffffffffffffffff021916908373ffffffffffffffffffffffffffffffffffffffff16021790555060408201518160020190816112e99190611f63565b509050505050565b6000600160009054906101000a900473ffffffffffffffffffffffffffffffffffffffff1673ffffffffffffffffffffffffffffffffffffffff166370a08231306040518263ffffffff1660e01b815260040161134e91906117a2565b602060405180830381865afa15801561136b573d6000803e3d6000fd5b505050506040513d601f19601f8201168201806040525081019061138f9190611ccd565b905090565b806000806101000a81548173ffffffffffffffffffffffffffffffffffffffff021916908373ffffffffffffffffffffffffffffffffffffffff16021790555060008054906101000a900473ffffffffffffffffffffffffffffffffffffffff16600160006101000a81548173ffffffffffffffffffffffffffffffffffffffff021916908373ffffffffffffffffffffffffffffffffffffffff16021790555050565b600080fd5b600073ffffffffffffffffffffffffffffffffffffffff82169050919050565b60006114688261143d565b9050919050565b6114788161145d565b811461148357600080fd5b50565b6000813590506114958161146f565b92915050565b6000602082840312156114b1576114b0611438565b5b60006114bf84828501611486565b91505092915050565b60008115159050919050565b6114dd816114c8565b82525050565b60006020820190506114f860008301846114d4565b92915050565b611507816114c8565b811461151257600080fd5b50565b600081359050611524816114fe565b92915050565b6000806040838503121561154157611540611438565b5b600061154f85828601611486565b925050602061156085828601611515565b9150509250929050565b6000819050919050565b61157d8161156a565b811461158857600080fd5b50565b60008135905061159a81611574565b92915050565b600080604083850312156115b7576115b6611438565b5b60006115c58582860161158b565b92505060206115d685828601611515565b9150509250929050565b6000602082840312156115f6576115f5611438565b5b60006116048482850161158b565b91505092915050565b6116168161156a565b82525050565b6000604082019050611631600083018561160d565b61163e602083018461160d565b9392505050565b6000806040838503121561165c5761165b611438565b5b600061166a85828601611486565b925050602061167b85828601611486565b9150509250929050565b6000806040838503121561169c5761169b611438565b5b60006116aa85828601611486565b92505060206116bb8582860161158b565b9150509250929050565b6116ce8161145d565b82525050565b600081519050919050565b600082825260208201905092915050565b60005b8381101561170e5780820151818401526020810190506116f3565b60008484015250505050565b6000601f19601f8301169050919050565b6000611736826116d4565b61174081856116df565b93506117508185602086016116f0565b6117598161171a565b840191505092915050565b6000606082019050611779600083018661160d565b61178660208301856116c5565b8181036040830152611798818461172b565b9050949350505050565b60006020820190506117b760008301846116c5565b92915050565b60006020820190506117d2600083018461160d565b92915050565b7f53656e646572206973206e6f7420746865206f776e6572000000000000000000600082015250565b600061180e6017836116df565b9150611819826117d8565b602082019050919050565b6000602082019050818103600083015261183d81611801565b9050919050565b7f4f776e65722068617320616c726561647920766f74656420666f72207468697360008201527f2063616e64696461746500000000000000000000000000000000000000000000602082015250565b60006118a0602a836116df565b91506118ab82611844565b604082019050919050565b600060208201905081810360008301526118cf81611893565b9050919050565b7f4e487b7100000000000000000000000000000000000000000000000000000000600052601160045260246000fd5b60006119108261156a565b91507fffffffffffffffffffffffffffffffffffffffffffffffffffffffffffffffff8203611942576119416118d6565b5b600182019050919050565b7f4e487b7100000000000000000000000000000000000000000000000000000000600052601260045260246000fd5b60006119878261156a565b91506119928361156a565b9250826119a2576119a161194d565b5b828204905092915050565b7f4f776e65722068617320616c726561647920766f74656420666f72207468697360008201527f207472616e73616374696f6e0000000000000000000000000000000000000000602082015250565b6000611a09602c836116df565b9150611a14826119ad565b604082019050919050565b60006020820190508181036000830152611a38816119fc565b9050919050565b7f54686973207472616e73616374696f6e20646f65736e2774206578697374207960008201527f6574000000000000000000000000000000000000000000000000000000000000602082015250565b6000611a9b6022836116df565b9150611aa682611a3f565b604082019050919050565b60006020820190508181036000830152611aca81611a8e565b9050919050565b600081905092915050565b7f4f6e20766f74696e670000000000000000000000000000000000000000000000600082015250565b6000611b12600983611ad1565b9150611b1d82611adc565b600982019050919050565b6000611b3382611b05565b9150819050919050565b7f4e487b7100000000000000000000000000000000000000000000000000000000600052602260045260246000fd5b60006002820490506001821680611b8457607f821691505b602082108103611b9757611b96611b3d565b5b50919050565b60008190508160005260206000209050919050565b60008154611bbf81611b6c565b611bc98186611ad1565b94506001821660008114611be45760018114611bf957611c2c565b60ff1983168652811515820286019350611c2c565b611c0285611b9d565b60005b83811015611c2457815481890152600182019150602081019050611c05565b838801955050505b50505092915050565b6000611c418284611bb2565b915081905092915050565b7f54686973207472616e73616374696f6e206e6f74206f6e20766f74696e670000600082015250565b6000611c82601e836116df565b9150611c8d82611c4c565b602082019050919050565b60006020820190508181036000830152611cb181611c75565b9050919050565b600081519050611cc781611574565b92915050565b600060208284031215611ce357611ce2611438565b5b6000611cf184828501611cb8565b91505092915050565b7f4e6f7420656e6f75676820746f6b656e73206f6e2077616c6c65740000000000600082015250565b6000611d30601b836116df565b9150611d3b82611cfa565b602082019050919050565b60006020820190508181036000830152611d5f81611d23565b9050919050565b6000606082019050611d7b60008301866116c5565b611d8860208301856116c5565b611d95604083018461160d565b949350505050565b7f4e487b7100000000000000000000000000000000000000000000000000000000600052604160045260246000fd5b60006020601f8301049050919050565b600082821b905092915050565b600060088302611e197fffffffffffffffffffffffffffffffffffffffffffffffffffffffffffffffff82611ddc565b611e238683611ddc565b95508019841693508086168417925050509392505050565b6000819050919050565b6000611e60611e5b611e568461156a565b611e3b565b61156a565b9050919050565b6000819050919050565b611e7a83611e45565b611e8e611e8682611e67565b848454611de9565b825550505050565b600090565b611ea3611e96565b611eae818484611e71565b505050565b5b81811015611ed257611ec7600082611e9b565b600181019050611eb4565b5050565b601f821115611f1757611ee881611b9d565b611ef184611dcc565b81016020851015611f00578190505b611f14611f0c85611dcc565b830182611eb3565b50505b505050565b600082821c905092915050565b6000611f3a60001984600802611f1c565b1980831691505092915050565b6000611f538383611f29565b9150826002028217905092915050565b611f6c826116d4565b67ffffffffffffffff811115611f8557611f84611d9d565b5b611f8f8254611b6c565b611f9a828285611ed6565b600060209050601f831160018114611fcd5760008415611fbb578287015190505b611fc58582611f47565b86555061202d565b601f198416611fdb86611b9d565b60005b8281101561200357848901518255600182019150602085019450602081019050611fde565b86831015612020578489015161201c601f891682611f29565b8355505b6001600288020188555050505b505050505050565b7f53656e64657220697320616c726561647920746865206f776e65720000000000600082015250565b600061206b601b836116df565b915061207682612035565b602082019050919050565b6000602082019050818103600083015261209a8161205e565b905091905056fea26469706673582212204055ed7a9b49ba5d4d7bd0a17cd13cfd0df7a1dfd9d68bfe75360ede5c4e6a1564736f6c63430008110033",
  "linkReferences": {},
  "deployedLinkReferences": {}
}