{
  "_format": "hh-sol-artifact-1",
  "contractName": "MultiSig",
  "sourceName": "contracts/MultiSig.sol",
  "abi": [
    {
      "inputs": [],
      "stateMutability": "nonpayable",
      "type": "constructor"
    },
    {
      "inputs": [],
      "name": "becomeCandidate",
      "outputs": [],
      "stateMutability": "nonpayable",
      "type": "function"
    },
    {
      "inputs": [
        {
          "internalType": "address",
          "name": "",
          "type": "address"
        }
      ],
      "name": "candidatesForOwner",
      "outputs": [
        {
          "internalType": "bool",
          "name": "",
          "type": "bool"
        }
      ],
      "stateMutability": "view",
      "type": "function"
    },
    {
      "inputs": [
        {
          "internalType": "address",
          "name": "",
          "type": "address"
        }
      ],
      "name": "candidatesVotesCount",
      "outputs": [
        {
          "internalType": "uint256",
          "name": "_for",
          "type": "uint256"
        },
        {
          "internalType": "uint256",
          "name": "_against",
          "type": "uint256"
        }
      ],
      "stateMutability": "view",
      "type": "function"
    },
    {
      "inputs": [
        {
          "internalType": "address",
          "name": "_new",
          "type": "address"
        }
      ],
      "name": "changeTokenAddress",
      "outputs": [],
      "stateMutability": "nonpayable",
      "type": "function"
    },
    {
      "inputs": [],
      "name": "checkBalance",
      "outputs": [
        {
          "internalType": "uint256",
          "name": "",
          "type": "uint256"
        }
      ],
      "stateMutability": "view",
      "type": "function"
    },
    {
      "inputs": [
        {
          "internalType": "address",
          "name": "_to",
          "type": "address"
        },
        {
          "internalType": "uint256",
          "name": "_amount",
          "type": "uint256"
        }
      ],
      "name": "offerTransaction",
      "outputs": [],
      "stateMutability": "nonpayable",
      "type": "function"
    },
    {
      "inputs": [
        {
          "internalType": "address",
          "name": "",
          "type": "address"
        }
      ],
      "name": "owners",
      "outputs": [
        {
          "internalType": "bool",
          "name": "",
          "type": "bool"
        }
      ],
      "stateMutability": "view",
      "type": "function"
    },
    {
      "inputs": [],
      "name": "ownersCount",
      "outputs": [
        {
          "internalType": "uint256",
          "name": "",
          "type": "uint256"
        }
      ],
      "stateMutability": "view",
      "type": "function"
    },
    {
      "inputs": [
        {
          "internalType": "address",
          "name": "",
          "type": "address"
        },
        {
          "internalType": "address",
          "name": "",
          "type": "address"
        }
      ],
      "name": "ownersVotesForCandidate",
      "outputs": [
        {
          "internalType": "bool",
          "name": "",
          "type": "bool"
        }
      ],
      "stateMutability": "view",
      "type": "function"
    },
    {
      "inputs": [
        {
          "internalType": "address",
          "name": "",
          "type": "address"
        },
        {
          "internalType": "uint256",
          "name": "",
          "type": "uint256"
        }
      ],
      "name": "ownersVotesForTransaction",
      "outputs": [
        {
          "internalType": "bool",
          "name": "",
          "type": "bool"
        }
      ],
      "stateMutability": "view",
      "type": "function"
    },
    {
      "inputs": [],
      "name": "tokenAddress",
      "outputs": [
        {
          "internalType": "address",
          "name": "",
          "type": "address"
        }
      ],
      "stateMutability": "view",
      "type": "function"
    },
    {
      "inputs": [],
      "name": "transactionIndex",
      "outputs": [
        {
          "internalType": "uint256",
          "name": "",
          "type": "uint256"
        }
      ],
      "stateMutability": "view",
      "type": "function"
    },
    {
      "inputs": [
        {
          "internalType": "uint256",
          "name": "",
          "type": "uint256"
        }
      ],
      "name": "transactions",
      "outputs": [
        {
          "internalType": "uint256",
          "name": "_amount",
          "type": "uint256"
        },
        {
          "internalType": "address",
          "name": "_to",
          "type": "address"
        },
        {
          "internalType": "string",
          "name": "_status",
          "type": "string"
        }
      ],
      "stateMutability": "view",
      "type": "function"
    },
    {
      "inputs": [
        {
          "internalType": "uint256",
          "name": "",
          "type": "uint256"
        }
      ],
      "name": "transactionsVotesCount",
      "outputs": [
        {
          "internalType": "uint256",
          "name": "_for",
          "type": "uint256"
        },
        {
          "internalType": "uint256",
          "name": "_against",
          "type": "uint256"
        }
      ],
      "stateMutability": "view",
      "type": "function"
    },
    {
      "inputs": [
        {
          "internalType": "address",
          "name": "_candidate",
          "type": "address"
        },
        {
          "internalType": "bool",
          "name": "_vote",
          "type": "bool"
        }
      ],
      "name": "voteForTheCandidate",
      "outputs": [],
      "stateMutability": "nonpayable",
      "type": "function"
    },
    {
      "inputs": [
        {
          "internalType": "uint256",
          "name": "_transactionID",
          "type": "uint256"
        },
        {
          "internalType": "bool",
          "name": "_vote",
          "type": "bool"
        }
      ],
      "name": "voteForTheTransaction",
      "outputs": [],
      "stateMutability": "nonpayable",
      "type": "function"
    }
  ],
  "bytecode": "0x60806040523480156200001157600080fd5b506001600260003373ffffffffffffffffffffffffffffffffffffffff1673ffffffffffffffffffffffffffffffffffffffff16815260200190815260200160002060006101000a81548160ff021916908315150217905550600360008154809291906200007f9062000178565b919050555073315756ba3241255eae134d126077e5326e4a95bd6000806101000a81548173ffffffffffffffffffffffffffffffffffffffff021916908373ffffffffffffffffffffffffffffffffffffffff16021790555060008054906101000a900473ffffffffffffffffffffffffffffffffffffffff16600160006101000a81548173ffffffffffffffffffffffffffffffffffffffff021916908373ffffffffffffffffffffffffffffffffffffffff160217905550620001c5565b7f4e487b7100000000000000000000000000000000000000000000000000000000600052601160045260246000fd5b6000819050919050565b600062000185826200016e565b91507fffffffffffffffffffffffffffffffffffffffffffffffffffffffffffffffff8203620001ba57620001b96200013f565b5b600182019050919050565b6121f580620001d56000396000f3fe608060405234801561001057600080fd5b50600436106101005760003560e01c80637649e82711610097578063b948854611610066578063b9488546146102d7578063c3331373146102f5578063c71daccb14610311578063c9cda91f1461032f57610100565b80637649e827146102385780639ace38c2146102695780639d76ea581461029b578063b8220f6a146102b957610100565b80632f41e443116100d35780632f41e4431461019d5780633ee50c9f146101a757806346f73a45146101d8578063618e8e931461020857610100565b8063022914a71461010557806305c88840146101355780631f9c283f146101515780632d28d5f614610181575b600080fd5b61011f600480360381019061011a9190611527565b61034b565b60405161012c919061156f565b60405180910390f35b61014f600480360381019061014a91906115b6565b61036b565b005b61016b60048036038101906101669190611527565b610882565b604051610178919061156f565b60405180910390f35b61019b6004803603810190610196919061162c565b6108a2565b005b6101a5610df6565b005b6101c160048036038101906101bc919061166c565b610f6a565b6040516101cf9291906116a8565b60405180910390f35b6101f260048036038101906101ed91906116d1565b610f8e565b6040516101ff919061156f565b60405180910390f35b610222600480360381019061021d9190611711565b610fbd565b60405161022f919061156f565b60405180910390f35b610252600480360381019061024d9190611527565b610fec565b6040516102609291906116a8565b60405180910390f35b610283600480360381019061027e919061166c565b611010565b604051610292939291906117f0565b60405180910390f35b6102a36110e2565b6040516102b0919061182e565b60405180910390f35b6102c1611106565b6040516102ce9190611849565b60405180910390f35b6102df61110c565b6040516102ec9190611849565b60405180910390f35b61030f600480360381019061030a9190611711565b611112565b005b61031961137d565b6040516103269190611849565b60405180910390f35b61034960048036038101906103449190611527565b611420565b005b60026020528060005260406000206000915054906101000a900460ff1681565b600260003373ffffffffffffffffffffffffffffffffffffffff1673ffffffffffffffffffffffffffffffffffffffff16815260200190815260200160002060009054906101000a900460ff166103f7576040517f08c379a00000000000000000000000000000000000000000000000000000000081526004016103ee906118b0565b60405180910390fd5b600660003373ffffffffffffffffffffffffffffffffffffffff1673ffffffffffffffffffffffffffffffffffffffff16815260200190815260200160002060008373ffffffffffffffffffffffffffffffffffffffff1673ffffffffffffffffffffffffffffffffffffffff16815260200190815260200160002060009054906101000a900460ff16156104c1576040517f08c379a00000000000000000000000000000000000000000000000000000000081526004016104b890611942565b60405180910390fd5b600560008373ffffffffffffffffffffffffffffffffffffffff1673ffffffffffffffffffffffffffffffffffffffff16815260200190815260200160002060009054906101000a900460ff1661054d576040517f08c379a0000000000000000000000000000000000000000000000000000000008152600401610544906119d4565b60405180910390fd5b801561072357600460008373ffffffffffffffffffffffffffffffffffffffff1673ffffffffffffffffffffffffffffffffffffffff16815260200190815260200160002060000160008154809291906105a690611a23565b919050555060026003546105ba9190611a9a565b600460008473ffffffffffffffffffffffffffffffffffffffff1673ffffffffffffffffffffffffffffffffffffffff16815260200190815260200160002060000154111561071e576001600260008473ffffffffffffffffffffffffffffffffffffffff1673ffffffffffffffffffffffffffffffffffffffff16815260200190815260200160002060006101000a81548160ff0219169083151502179055506000600560008473ffffffffffffffffffffffffffffffffffffffff1673ffffffffffffffffffffffffffffffffffffffff16815260200190815260200160002060006101000a81548160ff021916908315150217905550600460008373ffffffffffffffffffffffffffffffffffffffff1673ffffffffffffffffffffffffffffffffffffffff168152602001908152602001600020600080820160009055600182016000905550506003600081548092919061071890611a23565b91905055505b61087e565b600460008373ffffffffffffffffffffffffffffffffffffffff1673ffffffffffffffffffffffffffffffffffffffff168152602001908152602001600020600101600081548092919061077690611a23565b9190505550600260035461078a9190611a9a565b600460008473ffffffffffffffffffffffffffffffffffffffff1673ffffffffffffffffffffffffffffffffffffffff168152602001908152602001600020600101541061087d576000600560008473ffffffffffffffffffffffffffffffffffffffff1673ffffffffffffffffffffffffffffffffffffffff16815260200190815260200160002060006101000a81548160ff021916908315150217905550600460008373ffffffffffffffffffffffffffffffffffffffff1673ffffffffffffffffffffffffffffffffffffffff168152602001908152602001600020600080820160009055600182016000905550505b5b5050565b60056020528060005260406000206000915054906101000a900460ff1681565b600260003373ffffffffffffffffffffffffffffffffffffffff1673ffffffffffffffffffffffffffffffffffffffff16815260200190815260200160002060009054906101000a900460ff1661092e576040517f08c379a0000000000000000000000000000000000000000000000000000000008152600401610925906118b0565b60405180910390fd5b600a60003373ffffffffffffffffffffffffffffffffffffffff1673ffffffffffffffffffffffffffffffffffffffff168152602001908152602001600020600083815260200190815260200160002060009054906101000a900460ff16156109cc576040517f08c379a00000000000000000000000000000000000000000000000000000000081526004016109c390611b3d565b60405180910390fd5b600854821115610a11576040517f08c379a0000000000000000000000000000000000000000000000000000000008152600401610a0890611bcf565b60405180910390fd5b604051602001610a2090611c46565b6040516020818303038152906040528051906020012060076000848152602001908152602001600020600201604051602001610a5c9190611d53565b6040516020818303038152906040528051906020012014610ab2576040517f08c379a0000000000000000000000000000000000000000000000000000000008152600401610aa990611db6565b60405180910390fd5b8015610d4057600960008381526020019081526020016000206000016000815480929190610adf90611a23565b91905055506002600354610af39190611a9a565b60096000848152602001908152602001600020600001541115610d3b576007600083815260200190815260200160002060000154600160009054906101000a900473ffffffffffffffffffffffffffffffffffffffff1673ffffffffffffffffffffffffffffffffffffffff166370a08231306040518263ffffffff1660e01b8152600401610b82919061182e565b602060405180830381865afa158015610b9f573d6000803e3d6000fd5b505050506040513d601f19601f82011682018060405250810190610bc39190611deb565b1015610c04576040517f08c379a0000000000000000000000000000000000000000000000000000000008152600401610bfb90611e64565b60405180910390fd5b600160009054906101000a900473ffffffffffffffffffffffffffffffffffffffff1673ffffffffffffffffffffffffffffffffffffffff166323b872dd306007600086815260200190815260200160002060010160009054906101000a900473ffffffffffffffffffffffffffffffffffffffff1660076000878152602001908152602001600020600001546040518463ffffffff1660e01b8152600401610caf93929190611e84565b600060405180830381600087803b158015610cc957600080fd5b505af1158015610cdd573d6000803e3d6000fd5b505050506040518060400160405280600981526020017f5375626d69747465640000000000000000000000000000000000000000000000815250600760008481526020019081526020016000206002019081610d399190612081565b505b610df2565b600960008381526020019081526020016000206001016000815480929190610d6790611a23565b91905055506002600354610d7b9190611a9a565b600960008481526020019081526020016000206001015410610df1576040518060400160405280600681526020017f44656e6965640000000000000000000000000000000000000000000000000000815250600760008481526020019081526020016000206002019081610def9190612081565b505b5b5050565b600260003373ffffffffffffffffffffffffffffffffffffffff1673ffffffffffffffffffffffffffffffffffffffff16815260200190815260200160002060009054906101000a900460ff1615610e83576040517f08c379a0000000000000000000000000000000000000000000000000000000008152600401610e7a9061219f565b60405180910390fd5b600560003373ffffffffffffffffffffffffffffffffffffffff1673ffffffffffffffffffffffffffffffffffffffff16815260200190815260200160002060009054906101000a900460ff1615610f10576040517f08c379a0000000000000000000000000000000000000000000000000000000008152600401610f079061219f565b60405180910390fd5b6001600560003373ffffffffffffffffffffffffffffffffffffffff1673ffffffffffffffffffffffffffffffffffffffff16815260200190815260200160002060006101000a81548160ff021916908315150217905550565b60096020528060005260406000206000915090508060000154908060010154905082565b60066020528160005260406000206020528060005260406000206000915091509054906101000a900460ff1681565b600a6020528160005260406000206020528060005260406000206000915091509054906101000a900460ff1681565b60046020528060005260406000206000915090508060000154908060010154905082565b60076020528060005260406000206000915090508060000154908060010160009054906101000a900473ffffffffffffffffffffffffffffffffffffffff169080600201805461105f90611c8a565b80601f016020809104026020016040519081016040528092919081815260200182805461108b90611c8a565b80156110d85780601f106110ad576101008083540402835291602001916110d8565b820191906000526020600020905b8154815290600101906020018083116110bb57829003601f168201915b5050505050905083565b60008054906101000a900473ffffffffffffffffffffffffffffffffffffffff1681565b60085481565b60035481565b600260003373ffffffffffffffffffffffffffffffffffffffff1673ffffffffffffffffffffffffffffffffffffffff16815260200190815260200160002060009054906101000a900460ff1661119e576040517f08c379a0000000000000000000000000000000000000000000000000000000008152600401611195906118b0565b60405180910390fd5b80600160009054906101000a900473ffffffffffffffffffffffffffffffffffffffff1673ffffffffffffffffffffffffffffffffffffffff166370a08231306040518263ffffffff1660e01b81526004016111fa919061182e565b602060405180830381865afa158015611217573d6000803e3d6000fd5b505050506040513d601f19601f8201168201806040525081019061123b9190611deb565b101561127c576040517f08c379a000000000000000000000000000000000000000000000000000000000815260040161127390611e64565b60405180910390fd5b6008600081548092919061128f90611a23565b919050555060405180606001604052808281526020018373ffffffffffffffffffffffffffffffffffffffff1681526020016040518060400160405280600981526020017f4f6e20766f74696e6700000000000000000000000000000000000000000000008152508152506007600060085481526020019081526020016000206000820151816000015560208201518160010160006101000a81548173ffffffffffffffffffffffffffffffffffffffff021916908373ffffffffffffffffffffffffffffffffffffffff16021790555060408201518160020190816113759190612081565b509050505050565b6000600160009054906101000a900473ffffffffffffffffffffffffffffffffffffffff1673ffffffffffffffffffffffffffffffffffffffff166370a08231306040518263ffffffff1660e01b81526004016113da919061182e565b602060405180830381865afa1580156113f7573d6000803e3d6000fd5b505050506040513d601f19601f8201168201806040525081019061141b9190611deb565b905090565b806000806101000a81548173ffffffffffffffffffffffffffffffffffffffff021916908373ffffffffffffffffffffffffffffffffffffffff16021790555060008054906101000a900473ffffffffffffffffffffffffffffffffffffffff16600160006101000a81548173ffffffffffffffffffffffffffffffffffffffff021916908373ffffffffffffffffffffffffffffffffffffffff16021790555050565b600080fd5b600073ffffffffffffffffffffffffffffffffffffffff82169050919050565b60006114f4826114c9565b9050919050565b611504816114e9565b811461150f57600080fd5b50565b600081359050611521816114fb565b92915050565b60006020828403121561153d5761153c6114c4565b5b600061154b84828501611512565b91505092915050565b60008115159050919050565b61156981611554565b82525050565b60006020820190506115846000830184611560565b92915050565b61159381611554565b811461159e57600080fd5b50565b6000813590506115b08161158a565b92915050565b600080604083850312156115cd576115cc6114c4565b5b60006115db85828601611512565b92505060206115ec858286016115a1565b9150509250929050565b6000819050919050565b611609816115f6565b811461161457600080fd5b50565b60008135905061162681611600565b92915050565b60008060408385031215611643576116426114c4565b5b600061165185828601611617565b9250506020611662858286016115a1565b9150509250929050565b600060208284031215611682576116816114c4565b5b600061169084828501611617565b91505092915050565b6116a2816115f6565b82525050565b60006040820190506116bd6000830185611699565b6116ca6020830184611699565b9392505050565b600080604083850312156116e8576116e76114c4565b5b60006116f685828601611512565b925050602061170785828601611512565b9150509250929050565b60008060408385031215611728576117276114c4565b5b600061173685828601611512565b925050602061174785828601611617565b9150509250929050565b61175a816114e9565b82525050565b600081519050919050565b600082825260208201905092915050565b60005b8381101561179a57808201518184015260208101905061177f565b60008484015250505050565b6000601f19601f8301169050919050565b60006117c282611760565b6117cc818561176b565b93506117dc81856020860161177c565b6117e5816117a6565b840191505092915050565b60006060820190506118056000830186611699565b6118126020830185611751565b818103604083015261182481846117b7565b9050949350505050565b60006020820190506118436000830184611751565b92915050565b600060208201905061185e6000830184611699565b92915050565b7f53656e646572206973206e6f7420746865206f776e6572000000000000000000600082015250565b600061189a60178361176b565b91506118a582611864565b602082019050919050565b600060208201905081810360008301526118c98161188d565b9050919050565b7f4f776e65722068617320616c726561647920766f74656420666f72207468697360008201527f2063616e64696461746500000000000000000000000000000000000000000000602082015250565b600061192c602a8361176b565b9150611937826118d0565b604082019050919050565b6000602082019050818103600083015261195b8161191f565b9050919050565b7f546869732061646472657373206973206e6f74207468652063616e646964617460008201527f6500000000000000000000000000000000000000000000000000000000000000602082015250565b60006119be60218361176b565b91506119c982611962565b604082019050919050565b600060208201905081810360008301526119ed816119b1565b9050919050565b7f4e487b7100000000000000000000000000000000000000000000000000000000600052601160045260246000fd5b6000611a2e826115f6565b91507fffffffffffffffffffffffffffffffffffffffffffffffffffffffffffffffff8203611a6057611a5f6119f4565b5b600182019050919050565b7f4e487b7100000000000000000000000000000000000000000000000000000000600052601260045260246000fd5b6000611aa5826115f6565b9150611ab0836115f6565b925082611ac057611abf611a6b565b5b828204905092915050565b7f4f776e65722068617320616c726561647920766f74656420666f72207468697360008201527f207472616e73616374696f6e0000000000000000000000000000000000000000602082015250565b6000611b27602c8361176b565b9150611b3282611acb565b604082019050919050565b60006020820190508181036000830152611b5681611b1a565b9050919050565b7f54686973207472616e73616374696f6e20646f65736e2774206578697374207960008201527f6574000000000000000000000000000000000000000000000000000000000000602082015250565b6000611bb960228361176b565b9150611bc482611b5d565b604082019050919050565b60006020820190508181036000830152611be881611bac565b9050919050565b600081905092915050565b7f4f6e20766f74696e670000000000000000000000000000000000000000000000600082015250565b6000611c30600983611bef565b9150611c3b82611bfa565b600982019050919050565b6000611c5182611c23565b9150819050919050565b7f4e487b7100000000000000000000000000000000000000000000000000000000600052602260045260246000fd5b60006002820490506001821680611ca257607f821691505b602082108103611cb557611cb4611c5b565b5b50919050565b60008190508160005260206000209050919050565b60008154611cdd81611c8a565b611ce78186611bef565b94506001821660008114611d025760018114611d1757611d4a565b60ff1983168652811515820286019350611d4a565b611d2085611cbb565b60005b83811015611d4257815481890152600182019150602081019050611d23565b838801955050505b50505092915050565b6000611d5f8284611cd0565b915081905092915050565b7f54686973207472616e73616374696f6e206e6f74206f6e20766f74696e670000600082015250565b6000611da0601e8361176b565b9150611dab82611d6a565b602082019050919050565b60006020820190508181036000830152611dcf81611d93565b9050919050565b600081519050611de581611600565b92915050565b600060208284031215611e0157611e006114c4565b5b6000611e0f84828501611dd6565b91505092915050565b7f4e6f7420656e6f75676820746f6b656e73206f6e2077616c6c65740000000000600082015250565b6000611e4e601b8361176b565b9150611e5982611e18565b602082019050919050565b60006020820190508181036000830152611e7d81611e41565b9050919050565b6000606082019050611e996000830186611751565b611ea66020830185611751565b611eb36040830184611699565b949350505050565b7f4e487b7100000000000000000000000000000000000000000000000000000000600052604160045260246000fd5b60006020601f8301049050919050565b600082821b905092915050565b600060088302611f377fffffffffffffffffffffffffffffffffffffffffffffffffffffffffffffffff82611efa565b611f418683611efa565b95508019841693508086168417925050509392505050565b6000819050919050565b6000611f7e611f79611f74846115f6565b611f59565b6115f6565b9050919050565b6000819050919050565b611f9883611f63565b611fac611fa482611f85565b848454611f07565b825550505050565b600090565b611fc1611fb4565b611fcc818484611f8f565b505050565b5b81811015611ff057611fe5600082611fb9565b600181019050611fd2565b5050565b601f8211156120355761200681611cbb565b61200f84611eea565b8101602085101561201e578190505b61203261202a85611eea565b830182611fd1565b50505b505050565b600082821c905092915050565b60006120586000198460080261203a565b1980831691505092915050565b60006120718383612047565b9150826002028217905092915050565b61208a82611760565b67ffffffffffffffff8111156120a3576120a2611ebb565b5b6120ad8254611c8a565b6120b8828285611ff4565b600060209050601f8311600181146120eb57600084156120d9578287015190505b6120e38582612065565b86555061214b565b601f1984166120f986611cbb565b60005b82811015612121578489015182556001820191506020850194506020810190506120fc565b8683101561213e578489015161213a601f891682612047565b8355505b6001600288020188555050505b505050505050565b7f53656e64657220697320616c726561647920746865206f776e65720000000000600082015250565b6000612189601b8361176b565b915061219482612153565b602082019050919050565b600060208201905081810360008301526121b88161217c565b905091905056fea264697066735822122001e90c72756277dd808287b1282e5a54076eb66d2c27554f3949be459402b2cf64736f6c63430008110033",
  "linkReferences": {},
  "deployedLinkReferences": {}
}